{
  "contractName": "Mycontract",
  "abi": [
    {
      "inputs": [
        {
          "internalType": "address payable",
          "name": "_beneficiary",
          "type": "address"
        },
        {
          "internalType": "uint256",
          "name": "_bidtime",
          "type": "uint256"
        }
      ],
      "payable": false,
      "stateMutability": "nonpayable",
      "type": "constructor"
    },
    {
      "anonymous": false,
      "inputs": [
        {
          "indexed": false,
          "internalType": "address",
          "name": "highestBidernow",
          "type": "address"
        },
        {
          "indexed": false,
          "internalType": "uint256",
          "name": "highestBidnow",
          "type": "uint256"
        }
      ],
      "name": "Bidraised",
      "type": "event"
    },
    {
      "anonymous": false,
      "inputs": [
        {
          "indexed": false,
          "internalType": "address",
          "name": "winner",
          "type": "address"
        },
        {
          "indexed": false,
          "internalType": "uint256",
          "name": "winAmount",
          "type": "uint256"
        }
      ],
      "name": "bidended",
      "type": "event"
    },
    {
      "constant": true,
      "inputs": [],
      "name": "beneficiary",
      "outputs": [
        {
          "internalType": "address payable",
          "name": "",
          "type": "address"
        }
      ],
      "payable": false,
      "stateMutability": "view",
      "type": "function"
    },
    {
      "constant": true,
      "inputs": [],
      "name": "bidtime",
      "outputs": [
        {
          "internalType": "uint256",
          "name": "",
          "type": "uint256"
        }
      ],
      "payable": false,
      "stateMutability": "view",
      "type": "function"
    },
    {
      "constant": true,
      "inputs": [],
      "name": "highestBid",
      "outputs": [
        {
          "internalType": "uint256",
          "name": "",
          "type": "uint256"
        }
      ],
      "payable": false,
      "stateMutability": "view",
      "type": "function"
    },
    {
      "constant": true,
      "inputs": [],
      "name": "highestBider",
      "outputs": [
        {
          "internalType": "address",
          "name": "",
          "type": "address"
        }
      ],
      "payable": false,
      "stateMutability": "view",
      "type": "function"
    },
    {
      "constant": false,
      "inputs": [],
      "name": "bid",
      "outputs": [],
      "payable": true,
      "stateMutability": "payable",
      "type": "function"
    },
    {
      "constant": false,
      "inputs": [],
      "name": "withdrawbid",
      "outputs": [
        {
          "internalType": "bool",
          "name": "",
          "type": "bool"
        }
      ],
      "payable": false,
      "stateMutability": "nonpayable",
      "type": "function"
    },
    {
      "constant": false,
      "inputs": [],
      "name": "auctionend",
      "outputs": [],
      "payable": false,
      "stateMutability": "nonpayable",
      "type": "function"
    }
  ],
  "bytecode": "0x608060405234801561001057600080fd5b506040516105a23803806105a28339818101604052604081101561003357600080fd5b810190808051906020019092919080519060200190929190505050816000806101000a81548173ffffffffffffffffffffffffffffffffffffffff021916908373ffffffffffffffffffffffffffffffffffffffff1602179055508060018190555050506104fc806100a66000396000f3fe6080604052600436106100705760003560e01c806338af3eed1161004e57806338af3eed146100d95780636b57707e14610130578063b9d1fb6114610187578063d57bde791461019e57610070565b80631998aeef14610075578063251c43de1461007f578063286caf0e146100aa575b600080fd5b61007d6101c9565b005b34801561008b57600080fd5b5061009461029d565b6040518082815260200191505060405180910390f35b3480156100b657600080fd5b506100bf6102a3565b604051808215151515815260200191505060405180910390f35b3480156100e557600080fd5b506100ee6103c7565b604051808273ffffffffffffffffffffffffffffffffffffffff1673ffffffffffffffffffffffffffffffffffffffff16815260200191505060405180910390f35b34801561013c57600080fd5b506101456103ec565b604051808273ffffffffffffffffffffffffffffffffffffffff1673ffffffffffffffffffffffffffffffffffffffff16815260200191505060405180910390f35b34801561019357600080fd5b5061019c610412565b005b3480156101aa57600080fd5b506101b36104c1565b6040518082815260200191505060405180910390f35b42600154116101d757600080fd5b60045434111561029b573460048190555033600360006101000a81548173ffffffffffffffffffffffffffffffffffffffff021916908373ffffffffffffffffffffffffffffffffffffffff16021790555060045460026000600360009054906101000a900473ffffffffffffffffffffffffffffffffffffffff1673ffffffffffffffffffffffffffffffffffffffff1673ffffffffffffffffffffffffffffffffffffffff168152602001908152602001600020600082825401925050819055505b565b60015481565b600080600260003373ffffffffffffffffffffffffffffffffffffffff1673ffffffffffffffffffffffffffffffffffffffff1681526020019081526020016000205490506000811115610337576000600260003373ffffffffffffffffffffffffffffffffffffffff1673ffffffffffffffffffffffffffffffffffffffff168152602001908152602001600020819055505b3373ffffffffffffffffffffffffffffffffffffffff166108fc829081150290604051600060405180830381858888f193505050506103be5780600260003373ffffffffffffffffffffffffffffffffffffffff1673ffffffffffffffffffffffffffffffffffffffff1681526020019081526020016000208190555060009150506103c4565b60019150505b90565b6000809054906101000a900473ffffffffffffffffffffffffffffffffffffffff1681565b600360009054906101000a900473ffffffffffffffffffffffffffffffffffffffff1681565b600154421161042057600080fd5b600560009054906101000a900460ff161561043a57600080fd5b6000809054906101000a900473ffffffffffffffffffffffffffffffffffffffff1673ffffffffffffffffffffffffffffffffffffffff166108fc6004549081150290604051600060405180830381858888f193505050501580156104a3573d6000803e3d6000fd5b506001600560006101000a81548160ff021916908315150217905550565b6004548156fea265627a7a72315820fc1c2ba6e3d46d78198b95c9f80573d974f343837806e3664ba84f4bcd249ae564736f6c63430005100032",
  "source": "pragma solidity >=0.4.20 <0.6.0;\r\n\r\ncontract Mycontract {\r\n\r\n    address payable public beneficiary;\r\n    uint public bidtime;\r\n    \r\n    mapping(address => uint) previousBids;\r\n    address public highestBider;\r\n    uint public highestBid;\r\n    \r\n    bool ended;\r\n    event Bidraised(address highestBidernow, uint highestBidnow );\r\n    event bidended(address winner,uint winAmount);\r\n    \r\n    constructor(address payable _beneficiary, uint _bidtime)public{\r\n        beneficiary = _beneficiary;\r\n        bidtime = _bidtime;\r\n    }\r\n    \r\n    function bid()payable public{\r\n        require(\r\n            bidtime>now) ;\r\n        \r\n        if(msg.value>highestBid)\r\n        {\r\n            highestBid = msg.value;\r\n            highestBider = msg.sender;\r\n            //emit Bidraised(highestBidernow,highestBid);\r\n            previousBids[highestBider] += highestBid; \r\n        }\r\n        \r\n    }\r\n    function withdrawbid()public returns(bool){\r\n        uint amount = previousBids[msg.sender];\r\n        if(amount>0)\r\n        {\r\n            previousBids[msg.sender] = 0;\r\n        }\r\n        if(!msg.sender.send(amount))\r\n        {\r\n            previousBids[msg.sender] = amount;\r\n            return false;\r\n        }\r\n        return true;\r\n    }\r\n    function auctionend()public{\r\n        require(now>bidtime);\r\n        require(!ended);\r\n        //emit bidended(highestBidernow,highestBid);\r\n        beneficiary.transfer(highestBid);\r\n        ended = true;\r\n    }\r\n}",
  "sourcePath": "F:\\blockchain\\truffle-demo\\contracts\\bid.sol",
  "compiler": {
    "name": "solc",
    "version": "0.5.16+commit.9c3226ce.Emscripten.clang"
  },
  "schemaVersion": "3.0.23",
  "updatedAt": "2020-05-01T08:29:12.242Z",
  "devdoc": {
    "methods": {}
  },
  "userdoc": {
    "methods": {}
  }
}